:100000000C9434000C943E000C943E000C943E0082
:100010000C943E000C943E000C943E000C943E0068
:100020000C943E000C943E000C943E000C943E0058
:100030000C943E000C943E000C943E000C943E0048
:100040000C943E000C943E000C943E000C943E0038
:100050000C943E000C943E000C943E000C943E0028
:100060000C943E000C943E0011241FBECFEFD8E04C
:10007000DEBFCDBF0E9440000C9469000C940000CC
:100080008AB1837F8AB98BB18C608BB984B183606C
:1000900084B985B18C7F85B939B199B1987081E007
:1000A000232F247032FD80E031E0911130E0832B6A
:1000B000922B59F0289A81110AC0299A87E893E176
:1000C0000197F1F700C00000E7CF2898F4CF2998F6
:0600D000F5CFF894FFCF0C
:00000001FF
